:020000040000FA
:0600000033EF05F01200D1
:060008001EEF04F01200DF
:0600180027EF04F01200C6
:06002A000100920A000033
:080030008D000000010000003A
:08003800D9CFE6FFE1CFD9FFAB
:10004000040EE126DE6ADD6A020EDB6A030EDB6A5D
:10005000F7D8B0D981B0A3D000018D2B81B002D0E8
:100060008A8CFCD7100EE66E270EE66EE66AE66A0C
:1000700001D9E552E552E552E5528A9C00018D51C5
:10008000100A01E187D01F0A01E17FD0010A01E1D6
:1000900077D0030A70E0010A69E0070A60E0010A0C
:1000A00053E0030A46E0010A35E00F0A2AE0010A9C
:1000B00026E0030A1DE0010A19E0070A10E0010A20
:1000C00007E0030A01E06BD068D967D9F4D967D09B
:1000D000140EE66EE66E7BD9E552E55260D0140E42
:1000E000E66EE66EAED9E552E55259D0E4D957D066
:1000F000320EE66EE66E6BD9E552E55250D05AD913
:100100004ED04BD9140EE66E500EE66E60D9E55215
:10011000E55245D0B80EE66E0B0EE66ED9D9E55223
:10012000E552B80EE66E0B0EE66E18DAE552E552B1
:1001300036D0960EE66E640EE66E010EE66E4CDA72
:10014000E552E552E5522BD0460EE66E500EE66EB5
:100150000A0EE66E6FDAE552E552E55220D00A0E3D
:10016000E66EE66E34D9E552E55219D0010EE66E20
:1001700085DAE55214D0020EE66E80DAE5520FD031
:10018000050EE66E7BDAE5520AD00A0EE66E76DAE6
:10019000E55205D0010EE66E71DAE55200D081B26B
:1001A00044D081A2FED7F9D8320EE66EE66E0FD9A2
:1001B000E552E552ACA2FED7520EE66E1CEC05F0FD
:1001C000E552020EDB6A030EDB6A020EDBCF00F0A3
:1001D000030EDBCF01F0400E005C1F0E015808E259
:1001E0006FDA020EF3CFDBFF030EF4CFDBFFEDD7A8
:1001F000320EE66EE66E25D9E552E552520EE66EF7
:10020000A7EC04F0E552DE6ADD6ADECF00F0DDCF58
:1002100001F0400E005C1F0E015806E2B3DAF3CF86
:10022000DEFFF4CFDDFFF1D7BFD714D7040EE15CBA
:1002300002E2E16AE552E16EE552E7CFD9FF120032
:100240000F0EC16E230E936E800E946E956A010E92
:10025000966E816A826A836A846A7FEC04F0810EFA
:10026000E66EE66A3C0EE66EC3EC04F0E552E5523B
:10027000E5521200D9CFE6FFE1CFD9FFD950FB0FED
:10028000E96EFF0EDA20EA6ED880000EEE54000E02
:10029000EE54000EEE54000EEE540CE2D950FB0F5B
:1002A000E96EFF0EDA20EA6EEE06000EEE5AEE5A06
:1002B000EE5AE4D7E552E7CFD9FF1200D9CFE6FFD7
:1002C000E1CFD9FF020EE126190EDE6EDD6AD9CF2D
:1002D000E9FFDACFEAFF000ED880EE54000EED54AD
:1002E00008E2D9CFE9FFDACFEAFFEE06000EED5AB9
:1002F000EED7020EE15C02E2E16AE552E16EE55200
:10030000E7CFD9FF1200D9CFE6FFE1CFD9FF020E28
:10031000E1260C0EDE6EDD6AD9CFE9FFDACFEAFF07
:10032000000ED880EE54000EED5408E2D9CFE9FF5C
:10033000DACFEAFFEE06000EED5AEED7020EE15CD0
:1003400002E2E16AE552E16EE552E7CFD9FF120021
:10035000D9CFE6FFE1CFD9FF020EE126190EDE6EFE
:10036000DD6AD9CFE9FFDACFEAFF000ED880EE547C
:10037000000EED5408E2D9CFE9FFDACFEAFFEE062E
:10038000000EED5AEED7020EE15C02E2E16AE552A0
:10039000E16EE552E7CFD9FF12004F0EE66EA7ECF3
:1003A00004F0E552ACA2FED74F0EE66E1CEC05F051
:1003B000E5521200460EE66EA7EC04F0E552ACA240
:1003C000FED7460EE66E1CEC05F0E5521200D9CFC2
:1003D000E6FFE1CFD9FF3E0EE66EA7EC04F0E55252
:1003E000ACA2FED73C0EE66E1CEC05F0E552470EC3
:1003F000E66EA7EC04F0E552ACA2FED7470EE66E1F
:100400001CEC05F0E552530EE66EA7EC04F0E55245
:10041000FE0EDBCFE6FFA7EC04F0E552ACA2FED760
:10042000530EE66E1CEC05F0E552ACA2FED7FD0EB5
:10043000DBCFE6FF1CEC05F0E552E552E7CFD9FF34
:100440001200D9CFE6FFE1CFD9FF3C0EE66EA7EC54
:1004500004F0E552ACA2FED73E0EE66E1CEC05F0B1
:10046000E552470EE66EA7EC04F0E552ACA2FED7CB
:10047000470EE66E1CEC05F0E552530EE66EA7EC57
:1004800004F0E552FE0EDBCFE6FFA7EC04F0E552E8
:10049000ACA2FED7530EE66E1CEC05F0E552ACA202
:1004A000FED7FD0EDBCFE6FF1CEC05F0E552E55272
:1004B000E7CFD9FF1200420EE66EA7EC04F0E5523A
:1004C000ACA2FED7420EE66E1CEC05F0E55212001F
:1004D000D9CFE6FFE1CFD9FF020EE126FD0EDBCF3B
:1004E00000F0FE0EDBCF01F001C000F0016A005009
:1004F000DF6EFF0EE76EFD0EDBCF00F0FE0EDBCFF2
:1005000001F0E7500016016A010E00C0DBFFACA24B
:10051000FED7520EE66E1CEC05F0E552ACA2FED7FB
:10052000540EE66E1CEC05F0E552ACA2FED7DFCF10
:10053000E6FF1CEC05F0E552ACA2FED7010EDBCFC6
:10054000E6FF1CEC05F0E552020EE15C02E2E16A16
:10055000E552E16EE552E7CFD9FF1200D9CFE6FFB1
:10056000E1CFD9FF020EE126FD0EDBCF00F0FE0E3B
:10057000DBCF01F001C000F0016A0050DF6EFF0E1A
:10058000E76EFD0EDBCF00F0FE0EDBCF01F0E75093
:100590000016016A010E00C0DBFF520EE66EA7ECEA
:1005A00004F0E552540EE66EA7EC04F0E552DFCFFE
:1005B000E6FFA7EC04F0E552010EDBCFE6FFA7EC67
:1005C00004F0E552020EE15C02E2E16AE552E16EFE
:1005D000E552E7CFD9FF1200D9CFE6FFE1CFD9FF2F
:1005E000ACA2FED7410EE66E1CEC05F0E552ACA2C3
:1005F000FED7FE0EDBCFE6FF1CEC05F0E552ACA209
:10060000FED7FD0EDBCFE6FF1CEC05F0E552ACA2F9
:10061000FED7FC0EDBCFE6FF1CEC05F0E552ACA2EA
:10062000FED7470EE66E1CEC05F0E552E552E7CF2B
:10063000D9FF1200D9CFE6FFE1CFD9FF410EE66E18
:10064000A7EC04F0E552FE0EDBCFE6FFA7EC04F0CA
:10065000E552FD0EDBCFE6FFA7EC04F0E552FC0E01
:10066000DBCFE6FFA7EC04F0E552470EE66EA7EC01
:1006700004F0E552E552E7CFD9FF1200D9CFE6FFEB
:10068000E1CFD9FF4D0EE66EA7EC04F0E552FE0E69
:10069000DBCFE6FFA7EC04F0E552ACA2FED74D0E8F
:1006A000E66E1CEC05F0E552ACA2FED7FE0EDBCFE9
:1006B000E6FF1CEC05F0E552E552E7CFD9FF12004A
:1006C000D9CFE6FFE1CFD9FF040EE126ACA2FED7D9
:1006D000450EE66E1CEC05F0E5529EAAFED7FDEC39
:1006E00004F0006E016A00BE016800C0DEFF01C0B8
:1006F000DDFFDECF00F0DDCF01F000C001F0006AC9
:10070000000E0016FF0E011600C0DEFF01C0DDFF67
:100710009EAAFED7FDEC04F0006E016A00BE0168DF
:10072000020E00C0DBFF030E01C0DBFFFF0EE76E11
:10073000020EDBCF00F0030EDBCF01F0E750001616
:10074000016A020E00C0DBFF030E01C0DBFF020ED8
:10075000DBCF02F0030EDBCF03F0DE500218006E99
:10076000DD500318016E00C0F3FF01C0F4FF040E5A
:10077000E15C03E200D0E16AE552E16EE552E7CFC9
:10078000D9FF1200D9CFE6FFE1CFD9FF040EE12651
:10079000450EE66EA7EC04F0E55286EC04F0006E20
:1007A000016A00BE016800C0DEFF01C0DDFFDECFD0
:1007B00000F0DDCF01F000C001F0006A000E00166D
:1007C000FF0E011600C0DEFF01C0DDFF86EC04F065
:1007D000006E016A00BE0168020E00C0DBFF030E5E
:1007E00001C0DBFFFF0EE76E020EDBCF00F0030E51
:1007F000DBCF01F0E7500016016A020E00C0DBFFFC
:10080000030E01C0DBFF020EDBCF02F0030EDBCFD5
:1008100003F0DE500218006EDD500318016E00C0B8
:10082000F3FF01C0F4FF040EE15C03E200D0E16AD3
:10083000E552E16EE552E7CFD9FF1200DACFE4FFCF
:10084000E2CFDAFFE652E552E5CFDAFF1100DACF68
:10085000E4FFE2CFDAFFE652E552E5CFDAFF11001E
:100860002A0EF66E000EF76E000EF86E00010900FB
:10087000F550856F0900F550866F03E1856701D05B
:100880003DD00900F550806F0900F550816F0900D7
:10089000F550826F09000900F550E96E0900F55026
:1008A000EA6E090009000900F550836F0900F55050
:1008B000846F09000900F6CF87F0F7CF88F0F8CFF2
:1008C00089F080C0F6FF81C0F7FF82C0F8FF000109
:1008D000835302E1845307E00900F550EE6E83076D
:1008E000F8E28407F9D787C0F6FF88C0F7FF89C010
:0E08F000F8FF00018507000E865BBFD71200DF
:0208FE000F01E8
:10090000939881880F01938A818A12000001080E52
:100910008B6F0F0181BA8AEF04F083EC01F00F01B5
:1009200081BA8AEF04F0A8EC01F00F0181AAD890F7
:1009300081BAD88000018A338B2F93EF04F0A8ECA2
:1009400001F083EC01F0000000018A511200000167
:10095000FF0EE3CF8AF0090E8B6FD8900F01B3EF33
:1009600004F000018A330F01D8A08198D8B08188A3
:100970005EEC01F000018B2FB1EF04F00F018188D4
:060980005EEC01F0120024
:0A098600D9CFE6FFDACFE6FFE1CF9C
:10099000D9FFE2CFDAFFAC6AAB6AFD0EDBA005D06F
:1009A000AC88DBA404D0AC8E02D0DBB8AC84DBA274
:1009B00002D0AC8CAB8CDBA602D0AB8801D0AB8A6A
:1009C000DBAC02D09D8A01D09D9ADBAE02D09D881F
:1009D00001D09D98FB0EDB50AF6EFC0EDBCF01F01B
:1009E00001C000F0016A0050B06EAC8AAB8EE552D7
:0A09F000E5CFDAFFE7CFD9FF1200D0
:0609FA00D9CFE6FFDACFC1
:100A0000E6FFE1CFD9FFE2CFDAFFE652F20E0001B6
:100A10008C17ABAC03D08C91ABB08C81ABB48C8514
:100A2000ABB28C87AE50DF6EDF50E552E552E5CFBA
:080A3000DAFFE7CFD9FF120045
:080A3800D9CFE6FFDACFE6FF9B
:100A4000E1CFD9FFE2CFDAFFACAC04D0AC9000012B
:100A50008CB3AC80FD0EDB50AD6EE552E5CFDAFF16
:060A6000E7CFD9FF1200F0
:0A0A660015EE00F025EE00F0F86A2E
:100A7000059C30EC04F048EC05F01CEC00F0FBD7D2
:020A8000120062
:0E0A820000EE00F00F0EEE6AEA62FDD71200E1
:020A9000120052
:010A92000063
:020000040030CA
:0100010002FC
:0100020019E4
:010003001EDE
:010005008179
:010006008178
:00000001FF
